:020000040800F2
:10000000A8D30220B9020008892200089120000824
:1000100085220008AF060008FD300008000000003F
:100020000000000000000000000000003728000869
:10003000B514000800000000192300085D2E000818
:10004000D3020008D3020008D3020008D30200083C
:10005000D3020008D3020008D3020008D30200082C
:10006000D3020008D3020008D3020008D30200081C
:10007000D3020008D3020008D3020008D30200080C
:10008000D3020008D3020008D3020008D3020008FC
:10009000D3020008D3020008D3020008D3020008EC
:1000A000D3020008D3020008D3020008D3020008DC
:1000B000D3020008D3020008D3020008D3020008CC
:1000C000D3020008D3020008D3020008D3020008BC
:1000D000D3020008D3020008E92E0008D30200086A
:1000E000D3020008D3020008D3020008D30200089C
:1000F000D3020008D3020008D3020008D30200088C
:10010000D3020008E1270008D3020008D302000848
:10011000D3020008D3020008D3020008D30200086B
:10012000D3020008D3020008D3020008D30200085B
:10013000D3020008D3020008D3020008D30200084B
:10014000D3020008D3020008D3020008D30200083B
:10015000D3020008D3020008D3020008D30200082B
:10016000D3020008D3020008D3020008D30200081B
:10017000D3020008D302000849120008D302000885
:10018000D3020008D3020008D3020008D3020008FB
:10019000D3020008D3020008D3020008D3020008EB
:1001A000D3020008D3020008D302000800F002F8CE
:1001B00000F072F80AA090E8000C82448344AAF18F
:1001C0000107DA4501D100F067F8AFF2090EBAE88D
:1001D0000F0013F0010F18BFFB1A43F0010318477B
:1001E000CC3F0000FC3F00000A444FF0000C10F828
:1001F000013B13F0070408BF10F8014B1D1108BFA5
:1002000010F8015B641E05D010F8016B641E01F844
:10021000016BF9D113F0080F1EBF10F8014BAD1C94
:100220000C1B09D16D1E58BF01F801CBFAD505E0B2
:1002300014F8016B01F8016B6D1EF9D59142D6D30C
:1002400070470000103A24BF78C878C1FAD8520726
:1002500024BF30C830C144BF04680C607047000040
:100260000023002400250026103A28BF78C1FBD8BF
:10027000520728BF30C148BF0B607047642900F0A7
:100280008380782900F0BC80002070471FB503F000
:10029000A9F81FBD10B510BD00F0D3F91146FFF746
:1002A000F5FF02F055FF00F0F1F903B4FFF7F2FF9C
:1002B00003BC00F0F5F900000948804709480047F1
:1002C000FEE7FEE7FEE7FEE7FEE7FEE7FEE7FEE706
:1002D000FEE7FEE704480549054A064B7047000063
:1002E000812E0008AD010008A8C30220A8D3022077
:1002F000A8CB0220A8CB02200FB41CB5074B06AA3E
:100300007B4469460090059800F083F90020694617
:1003100000F092F91CBC5DF814FB000035030000EE
:100320002DE9F0410E460446002020622046E16897
:10033000884730B3252805D0D4E901219047206AA9
:10034000401CF2E7E168204600278847050018D0E6
:10035000A5F14100192802D820354FF40067324634
:10036000294620462760FFF789FF40B1012804D0C5
:10037000F61D26F007060836D8E7361DD6E72846CC
:10038000DAE7206ABDE8F0812DE9F0410646002455
:1003900010687529314616A511D0AFF300800028EA
:1003A00003DAC0F1000013A507E031688A0701D520
:1003B00011A502E0490704D510A5012401E0AFF31F
:1003C000008000210A2306F1240707E0B0FBF3F2C6
:1003D00003FB1200303078541046491C0028F5D138
:1003E00023462A463046BDE8F04100F0B1B800008F
:1003F000000000002D0000002B0000002000000085
:1004000070B504460D4621461068AFF30080218880
:10041000090502D5104A7A4402E00F4A7A440E32A6
:10042000002104F1240307E000F00F064FEA10104A
:10043000965D5E5401F101010028F5D10346207854
:10044000000704D5702D02D009B1113202232046D5
:10045000BDE8704000F07CB86A3D0000032A40F21D
:10046000308010F0030C00F0158011F8013BBCF156
:10047000020F624498BF11F801CB00F8013B38BF6E
:1004800011F8013BA2F1040298BF00F801CB38BF7C
:1004900000F8013B11F0030300F02580083AC0F09A
:1004A000088051F8043B083A51F804CBA0E8081042
:1004B000F5E7121D5CBF51F8043B40F8043BAFF375
:1004C0000080D20724BF11F8013B11F801CB48BFCF
:1004D00011F8012B24BF00F8013B00F801CB48BF05
:1004E00000F8012B704710B5203AC0F00B80B1E83E
:1004F0001850203AA0E81850B1E81850A0E8185059
:10050000BFF4F5AF5FEA027C24BFB1E81850A0E861
:10051000185044BF18C918C0BDE810405FEA827C7B
:1005200024BF51F8043B40F8043B08BF7047D20792
:1005300028BF31F8023B48BF11F8012B28BF20F833
:10054000023B48BF00F8012B704770477047704767
:100550002DE9F0470D4699469246044600F12408DD
:100560000168880604D5E06921F01001216000E0EF
:100570000120A84202DDA0EB050700E00027A169E9
:1005800007EB050202EB0900A1EB0000A061207857
:10059000C00602D42046AFF30080002608E0D4E96C
:1005A00001211AF806009047206A401C761C206240
:1005B0004E45F4DB2078C0060AD52046AFF3008014
:1005C00006E0D4E9012130209047206A401C2062D7
:1005D000381EA7F10107F4DC07E0D4E9012118F87F
:1005E00005009047206A401C2062281EA5F10105E5
:1005F000F3DC2046AFF300802078000602D502200D
:10060000BDE8F0870120FBE701694A1C0261087818
:10061000704700B58FB0CDE9013100210591054942
:100620007944CDE9031011466846FFF779FE0FB013
:1006300000BD0000E5FFFFFF0A6802F8010B0A6039
:100640007047754600F028F8AE46050069465346E7
:1006500020F00700854618B020B5FFF73BFEBDE847
:1006600020404FF000064FF000074FF000084FF019
:10067000000B21F00701AC46ACE8C009ACE8C009AA
:10068000ACE8C009ACE8C0098D4670470446AFF33A
:1006900000802046FFF709FE0048704748C302204B
:1006A00001491820ABBEFEE726000200704700BFDC
:1006B000FEE7000010B500240121FF2002F02AF817
:1006C00004438021122002F025F80443052000F0A5
:1006D000F3FE00203A4908700121FF2002F01AF8C9
:1006E000044337490A2001F049FF08B1012010BD39
:1006F00033480078262801D00120F8E7314800F07F
:10070000BCF90443304800F0B8F904432F4800F026
:10071000B4F9044300221521012000F046F90443F6
:100720002B4800F0AAF90443032000F075F80443B5
:10073000042000F051F80443032000F049F9044379
:100740000A2000F024F90443042000F0B3F8044325
:10075000082000F081F804431E4800F08EF904439D
:10076000102000F099F804434FF4487000F050F95D
:10077000044300222D21012000F017F90443002238
:100780002E21012000F011F9044302220921012049
:1007900000F00BF9044300221121012000F005F9BB
:1007A000044300221221012000F0FFF8044310222C
:1007B000DA21012000F0F9F80443204697E7000011
:1007C0007C000020E5340008BF340008D334000862
:1007D0006D340008FD38000870B505460026042D6C
:1007E00000DD04250021FF2001F094FF06430024D2
:1007F0000BE06A1C02EB8202064B1A44115D1A469A
:10080000105D01F087FF0643641C052CF1D33046D0
:1008100070BD00009536000870B505460026042D11
:1008200000DD04250021FF2001F074FF06430024B1
:100830000BE06A1CC2EBC202064B1A44115D1A4659
:10084000105D01F067FF0643641C072CF1D33046AE
:1008500070BD0000B336000870B505460026072DB0
:1008600000DD07250021FF2001F054FF064300248E
:100870000CE06A1C02EB8202064B1A44115D1A4618
:10088000105D01F047FF0643601CC4B2052CF0D395
:10089000304670BDEE33000870B505460121FF20DB
:1008A00001F038FF04432946002001F033FF0443E0
:1008B000204670BD70B5054600240021FF2001F0E0
:1008C00029FF0443012D05D10021C72001F022FF9B
:1008D00004435AE0022D14D14021C72001F01AFF31
:1008E00004435E21CC2001F015FF04434121CD20BB
:1008F00001F010FF04435421CE2001F00BFF04430C
:1009000043E0032D14D14021C72001F003FF04432D
:100910006521CC2001F0FEFE04434121CD2001F0F1
:10092000F9FE04434F21CE2001F0F4FE04432CE0F5
:10093000042D14D14021C72001F0ECFE04435221C4
:10094000CC2001F0E7FE04434121CD2001F0E2FE7E
:1009500004436621CE2001F0DDFE044315E0052DA1
:1009600013D14021C72001F0D5FE04434221CC2001
:1009700001F0D0FE04433F21CD2001F0CBFE044323
:100980007121CE2001F0C6FE0443204670BD70B533
:1009900005460021FF2001F0BDFE04432946442006
:1009A00001F0B8FE0443204670BD2DE9F041054634
:1009B0000E46174600242946FF2001F0ABFE0443F3
:1009C0003946304601F0A6FE04432046BDE8F081DA
:1009D00070B505460026042D00DD04250021FF200A
:1009E00001F098FE064300240BE06A1C02EB820231
:1009F000064B1A44115D1A46105D01F08BFE06434A
:100A0000641C052CF1D3304670BD0000DD360008B3
:100A1000F8B5054600240121FF2001F07BFE0443C8
:100A20006946042001F0AAFD9DF8000000F0FC00DA
:100A3000009005F003009DF80010084300909DF819
:100A40000010042001F066FE0443AE10F1B2102045
:100A500001F060FE04436946452001F08FFD044328
:100A60009DF8000000F03F000090AE12F1B245206A
:100A700001F050FE04432046F8BD70B50446002541
:100A8000002608E004EB4502517814F8150001F047
:100A900041FE06436D1C14F815000028F2D13046C3
:100AA00070BD000010B58EB004462AA002F052F9C5
:100AB00022792DA101A8FFF71FFC01A802F04AF935
:100AC00062792DA101A8FFF717FC01A802F042F9F5
:100AD000A2792DA101A8FFF70FFC01A802F03AF9B5
:100AE000E2792DA101A8FFF707FC01A802F032F975
:100AF000227A2CA101A8FFF7FFFB01A802F02AF936
:100B0000627A2BA101A8FFF7F7FB01A802F022F9F6
:100B100062892BA101A8FFF7EFFB01A802F01AF9E7
:100B2000227B2CA101A8FFF7E7FB01A802F012F934
:100B3000E2892CA101A8FFF7DFFB01A802F00AF966
:100B4000227C2CA101A8FFF7D7FB01A802F002F933
:100B50000EB010BD43616D65726120536574746998
:100B60006E67733A0D0A0000436F6E74726173749E
:100B70003A256409000000004272696768746E6576
:100B800073733A2564090000536174757261746966
:100B90006F6E3A25640900005175616C6974793A89
:100BA00025640900456666656374733A2564090027
:100BB0004C696768744D6F64653A256409000000EC
:100BC000536875747465722053706565643A256462
:100BD00009000000436C6F636B204469763A25641A
:100BE00009000000436C69636B2044656C61793ACD
:100BF00025640900447269766520466163746F72EA
:100C00003A25640D0A0000000321417101718171D0
:100C10004FF4C87141810721C17102210173042180
:100C2000417208210172002101740521C181002156
:100C3000418204210175704710B500F051F900F0B0
:100C400013F800F0BDF84FF40061064801F019FAFE
:100C50004FF48051034801F014FA2021014801F0BB
:100C60000EFA10BD0000024000B587B000F0D0FAC7
:100C700001211F2001F052FB0121084601F05EFB1B
:100C80000D2204214B4801F0D7F90D2206214948D5
:100C900001F0D2F90D220721474801F0CDF90D22CC
:100CA0000621464801F0C8F90D220721434801F00A
:100CB000C3F90D220821414801F0BEF90D22092196
:100CC0003E4801F0B9F90D220B213C4801F0B4F97E
:100CD0000D220621384801F0AFF90D2208213648CF
:100CE00001F0AAF90D220921334801F0A5F90220EB
:100CF0008DF8080003208DF8090000208DF80A0007
:100D000001208DF80B004FF43C60019001A92B48A5
:100D100001F04AF94FF47070019001A9264801F0E2
:100D200043F94FF40070019001A9234801F03CF908
:100D30001020019001A91F4801F036F940200190D0
:100D400002208DF8080000208DF80A0001A919483A
:100D500001F02AF90220ADF80C000020ADF80E00D9
:100D60002020ADF810000020ADF81200ADF81400FE
:100D7000ADF81600ADF8180003A800F085FA0120C0
:100D800000F0A2FA4FF4E06001F0BCFA4E208DF8BA
:100D9000000000208DF8010001208DF802008DF880
:100DA0000300684601F072FA0121084600F05AFA81
:100DB00007B000BD000002400004024000080240ED
:100DC00000B591B00121880501F0A8FA1F4800F094
:100DD00099FA4FF0007002901D4803901D4804904E
:100DE000002005904FF6FF700690002007904FF40A
:100DF000806008908000099040000A9000200B90CD
:100E00004FF440300C9004200D9003200E900020F1
:100E10000F904FF400000F900020109002A90B4893
:100E200000F01CFB4FF4E06001F06CFA39208DF803
:100E3000040000208DF805008DF8060001208DF8D3
:100E4000070001A801F022FA11B000BD2864024099
:100E500028000550E802002010B5012000F0C6F976
:100E60000121144800F042FA012000F0A7F9002007
:100E700011490870114908600FE010480068B0F58A
:100E8000FA6F0AD90E48006800F5FA600C4908604C
:100E90000CA001F05FFF002010BD0748007800287B
:100EA000EBD0074800680549096808440449086010
:100EB0000120F1E728640240440000203C000020AB
:100EC0004000002043616D6572612043617074755C
:100ED00072652054696D6564206F75740D0A000099
:100EE0001CB50121084601F019FA01208DF8040013
:100EF00000208DF8060003208DF8050001208DF8F4
:100F000007004FF4D15000906946024801F04CF8B8
:100F10001CBD00000000024010B50024602001F05C
:100F2000D5FA02F0EDF8012000F0C6FA20211248AF
:100F300001F0A7F80A2000F0BFFA10A001F00AFFA4
:100F40004FF400710C4801F09AF8322000F0B4FA26
:100F50004FF40071084801F094F8322000F0ACFA28
:100F60004FF40061044801F08CF84FF480510248BE
:100F700001F087F8204610BD00000240486172640D
:100F80002D72657365742043616D657261730D0A1E
:100F90000000000010B5044622460421014801F07B
:100FA00072F810BD000402402DE9FE4F82460E4645
:100FB00017460025A8460020774908600190009058
:100FC0004FF40061754801F05AF84FF480517348AE
:100FD00001F057F8FFF76EFBFFF73EFF08B945F049
:100FE00003054FF480516D4801F049F84FF400615A
:100FF0006A4801F046F8FFF75DFB69480078FF2872
:1010000026D167484078D82822D100241CE0B4F5C6
:10101000604F04D26248005D6249085505E06048AF
:10102000015DA4F56040604A1154022C0BD95C4864
:10103000005DD92807D1601E5949085CFF2802D1FC
:10104000601C009003E0641CB4F5F03FDFD300BFE8
:1010500000205349087000F0C9F8002000F0AEF8F5
:10106000FFF702FEFFF7ACFEFFF7F6FE08B945F00A
:1010700004054FF40061494801F003F84FF4805132
:10108000464800F0FEFF0021484800F02FF90020FC
:1010900000F0ACF8002000F091F8FFF7E5FDFFF755
:1010A0008FFE3F480078FF2816D13D484078D82869
:1010B00012D100240CE03A48005DFF2807D13849DE
:1010C000601C085CD92802D1A01C019003E0641CBC
:1010D000B4F5F03FEFD300BF009810B90198002895
:1010E00053D002A800F01CFA814600243048314950
:1010F00008602948006848610846C5600198486052
:101100002C48009981602B49029808614FF6FE70C7
:10111000A1F8440048230A464946204600F0C2FA96
:101120004FF40074009830B11D4A49462046019B97
:1011300000F0B8FA0444009808B3C4F30808C8F5EE
:10114000007004440098B0F5604F07D2154A494634
:101150002046009B00F0A6FA044410E04FF46043E0
:10116000104A4946204600F09DFA04440098A0F534
:1011700060430D4A4946204600F094FA04440E4864
:1011800004604846029900F0A1F9029830603C6082
:101190002846BDE8FE8F000040000020000002400D
:1011A000E8020020E8E2012000000010286402406C
:1011B00001EFCDABE8C202203800002030B1074972
:1011C000096841F00101054A116005E00349096819
:1011D00021F00101014A1160704700000000055034
:1011E00001494861704700000000055030B10749CF
:1011F000096841F48041054A116005E00349096826
:1012000021F48041014A1160704700000000055040
:10121000002005490860C8601F20486100208861DF
:10122000C86108624862704700000550014600200E
:101230000022044B1B6903EA01020AB1012000E00D
:10124000002070470000055010B50120FFF7EEFFA9
:10125000012804D1FFF7C4FF01200149087010BD27
:101260004400002029B1074AD2680243054BDA60E6
:1012700006E0044AD268C3439BB21A40014BDA60CD
:10128000704700000000055000210E4A126844F229
:1012900001039A430B4B1A601A46116840F6F2722A
:1012A0009143028843881A4383881A43C3881A43A8
:1012B00003891A4343891A4383891A431143014A14
:1012C000116070470000055030B10749096841F0CE
:1012D0000801054A116005E00349096821F0080189
:1012E000014A1160704700000000055021B10268FA
:1012F00042F00102026003E0026822F00102026093
:1013000070470000016821F00101016000210160C7
:1013100041608160C1600161212141614A49884287
:1013200004D13D21484A103A91608CE04649183179
:10133000884205D14FF47461434A103A916082E0CB
:1013400041493031884205D14FF474113E4A103A78
:10135000916078E03C494831884205D14FF0746192
:10136000394A103A91606EE037496031884204D1C1
:101370003649354A103AD16065E0334978318842C0
:1013800004D13349304A103AD1605CE02E499031A3
:10139000884204D12F492C4A103AD16053E02A499F
:1013A000A831884205D14FF03D51274A103AD1600B
:1013B00049E02949884204D13D21274A083A116071
:1013C00041E025491831884205D14FF47461224A21
:1013D000083A116037E020493031884205D14FF496
:1013E00074111D4A083A11602DE01B4948318842AA
:1013F00005D14FF07461184A083A116023E016498C
:101400006031884204D11149134A121F11601AE059
:1014100011497831884204D10D490F4A121F1160D9
:1014200011E00D499031884204D10A490A4A121F3D
:10143000116008E00849A831884204D14FF03D51BD
:10144000054A121F11607047106002403D000020E5
:10145000400F002000003D201064024010B5002223
:101460000268134B1A40CC680B6823434C69234332
:101470008C692343CC6923430C6A23434C6A23437E
:101480008C6A23434C6B23438C6B23431A430260C7
:10149000426922F00702D1E90B3423431A43426127
:1014A0000B6943604B6883608B68C36010BD0000AC
:1014B0003F801CF0704700000349086000BF0249EC
:1014C00009680029FBD170472400002070B505464B
:1014D0000E4650220D490E4800F0CCFA0B48103051
:1014E00000EB05140B4809490860E6600A480068EB
:1014F000A06044202060094850F825006060502218
:10150000034800F02BFB002070BD00009802002073
:1015100000F20F00EFCDAB0138000020744100084D
:101520002DE9F0478EB007460025A946A84650226F
:101530003D493E4800F09EFA3B4800683C498842DD
:101540000AD03CA001F006FC00F010F90120386040
:1015500000200EB0BDE8F087334C10340026D4F8DC
:101560000C90C846012510E02F48103000EB051400
:10157000E068484502D2D4F80C902E46E068404519
:1015800001D9D4F80C80681CC5B2042DECDB2648C8
:10159000103000EB860430A001F0DCFB324633A1B2
:1015A00001A8FEF7A9FE01A801F0D4FB31A001F0CB
:1015B000D1FB08F101022DA101A8FEF79DFE01A8B3
:1015C00001F0C8FB08F1010038602DA001F0C2FB5A
:1015D0004FF40071606800F00FFB824652462EA166
:1015E00001A8FEF789FE01A801F0B4FB504600F007
:1015F00079FA23A001F0AEFB616801F500304FF4E9
:10160000007100F0F9FA8246524623A101A8FEF7C4
:1016100073FE01A801F09EFB504600F063FA002023
:101620001F490860F0B294E79802002000F20F0012
:10163000EFCDAB0146696C652053797374656D20FD
:10164000436F72727570742C204372656174696E99
:1016500067204E65770D0A004E45572046494C4598
:10166000204C4F434154494F4E3A000020256420FE
:10167000000000004E4557205345514E4F3A0000A0
:1016800045726173696E6720536563746F722041A0
:101690006464726573733A002025640D0A000000CB
:1016A000380000202DE9F05F0746884691461D4628
:1016B0000024104850F828A016E02E1BB6F5007F35
:1016C00002D94FF4007600E000BF0AEB0401C8190C
:1016D0004FF4007100F090FA8346B2B209EB0400B7
:1016E000594600F035FC3444AC42E6D32846BDE808
:1016F000F09F00007441000810B50446012C16D17B
:101700001021194800F0BBFC3D2000F009FA2A2006
:1017100000F006FA802000F003FAA62000F000FA9C
:101720001021114800F0ADFC00F0DAFB19E0B4B96B
:1017300010210D4800F0A3FC3D2000F0F1F92A2013
:1017400000F0EEF9802000F0EBF9A72000F0E8F9B6
:101750001021054800F095FC00F0C2FB01E00020DC
:1017600010BD0120FCE700000010024070B513A07E
:1017700001F0F0FA17481849086004208860000456
:10178000486000250FE01448103000EB0514452098
:1017900020600020E060114850F8250060600020C3
:1017A000A060681CC5B2042DEDDB0DA001F0D2FADB
:1017B000502209490F4800F0D1F970BD43726561AC
:1017C00074696E67204E6577205461626C65730D95
:1017D0000A000000EFCDAB01980200207441000820
:1017E00057726974696E6720746F20466C61736804
:1017F0000D0A000000F20F0030B58DB050223D49B7
:101800003D4800F037F93DA001F0A4FA39483DA168
:1018100002686846FEF770FD684601F09BFA3BA03F
:1018200001F098FA33483CA182686846FEF764FDEF
:10183000684601F08FFA3AA001F08CFA2D4836A1E3
:1018400042686846FEF758FD684601F083FA38A002
:1018500001F080FA002434E02648103000EB041533
:1018600037A001F077FA39A168462A68FEF744FDEF
:10187000684601F06FFA37A001F06CFA26A16846BD
:10188000EA68FEF739FD684601F064FA34A001F019
:1018900061FA21A168466A68FEF72EFD684601F0EC
:1018A00059FA33A001F056FA1BA16846AA68FEF760
:1018B00023FD684601F04EFA30A001F04BFA601C9F
:1018C000C4B2042CC8DB2EA001F044FA00240AE0C4
:1018D0002D48025D1DA16846FEF70EFD684601F029
:1018E00039FA601CC4B2122CF2DB24A001F032FAE7
:1018F0000DB030BD9802002000F20F004845414471
:1019000045523A0020255820000000004D41585F04
:1019100046494C45533A0000202564200000000051
:101920004D41585F46494C455F53495A453A00007E
:101930000D0A46494C45205441424C453A0D0A0097
:1019400046494C45205441473A0000002025782064
:101950000000000046494C45205345513A00000024
:1019600046494C4520414444524553533A000000F7
:1019700046494C452053495A453A00000D0A00009B
:10198000535220233A00000000C3022000B587B064
:101990000121102000F0C2FC6420059002208DF887
:1019A000180000208DF81A0003208DF8190001207E
:1019B0008DF81B0005A92C4800F0F6FA052202213B
:1019C000294800F039FB05221146274800F034FB76
:1019D00005220621244800F02FFB0121102000F0F1
:1019E0009DFC1020059001208DF8180000208DF836
:1019F0001A0003208DF8190001208DF81B0005A99D
:101A0000194800F0D1FA1948008840F01000174931
:101A100008800121480300F0C1FC0020ADF800005F
:101A20004FF48270ADF802000020ADF80400ADF86C
:101A30000600ADF808004FF40070ADF80A00382039
:101A4000ADF80C000020ADF80E006946084800F023
:101A5000D4FE0121064800F0C4FE3220FFF72CFD21
:101A600000F07AF907B000BD0010024018040240EF
:101A7000003401402DE9F04107460E4614464FF070
:101A800000084FF40071384600F0B6F80546102102
:101A9000134800F0F4FA0B2000F042F8C5F30740B9
:101AA00000F03EF8C5F3072000F03AF8E8B200F085
:101AB00037F8AA2000F034F807E0AA2000F030F848
:101AC000414608F101087054641E002CF5D1102124
:101AD000034800F0D6FA00F003FA0020BDE8F081D8
:101AE0000010024010B5044610210C4800F0C7FA5F
:101AF0007C2000F015F8C4F3074000F011F8C4F39F
:101B0000072000F00DF8E0B200F00AF810210348B9
:101B100000F0B7FA00F0E4F9012010BD0010024017
:101B200001460D48018000BF0B48001F008810F0DF
:101B3000020FF9D000BF0848001F008810F0010F05
:101B4000F9D000BF0448001F008810F0800FF9D1C1
:101B500001480088C0B270470C3401402DE9F041C3
:101B600007460E4614464FF00008B4F5007F05D92D
:101B700019A001F0EFF80020BDE8F08100F046F870
:101B800010211C4800F07BFA4FF40071384600F039
:101B900033F805468220FFF7C3FFC5F30740FFF780
:101BA000BFFFC5F30720FFF7BBFFE8B2FFF7B8FFA1
:101BB00007E041464A1C02F0FF08705CFFF7B0FFE7
:101BC000641E002CF5D110210A4800F05AFA00F0EA
:101BD00087F90120D0E700005061676520466175F4
:101BE0006C742045786974696E67205772697465F2
:101BF0000D0A00000010024030B502460C460020DD
:101C0000510AC2F3080343EA412030BD10B5102148
:101C10000A4800F034FA3D20FFF782FF2A20FFF740
:101C20007FFF7F20FFF77CFF9A20FFF779FF1021CD
:101C3000024800F026FA00F053F910BD00100240EF
:101C40002DE9F0410546284600F046F806461F49B2
:101C500051F825004FF40071FFF7CEFF0446102124
:101C60001B4800F00CFA0B20FFF75AFFC4F30740A3
:101C7000FFF756FFC4F30720FFF752FFE0B2FFF76C
:101C80004FFFAA20FFF74CFF16E000BF402111488C
:101C900001F06AF90028F9D0AA20FFF741FF0746B2
:101CA00039460C4801F026FA00BF4021094801F0EE
:101CB0005BF90028F9D0761E002EE6D110210448E9
:101CC00000F0DFF900F00CF9BDE8F0817441000884
:101CD000001002400078004070B5054650221049BF
:101CE0001048FFF7C7FE0E4800680F49884206D02B
:101CF0000EA001F02FF8FFF739FD002070BD084855
:101D0000103000EB0514A068B0F5802F06D90DA0A7
:101D100001F020F8FFF72AFD0020EFE7A068EDE7CB
:101D20009802002000F20F00EFCDAB0146696C6510
:101D30002053797374656D20436F72727570740DE2
:101D40000A00000046696C6520496E666F20436F8B
:101D500072727570740D0A0010B58EB0FFF756FFE1
:101D60000120FFF7C9FC00F099F804461FA000F01D
:101D7000F1FF4FF4007222A101A8FEF7BDFA01A8FD
:101D800000F0E8FF14F4807F03D020A000F0E2FF11
:101D900005E023A000F0DEFF00200EB010BD04F42B
:101DA0007050B0F5A05F07D123A000F0D3FF1CA0B6
:101DB00000F0D0FF0020F0E704F47050B0F5305F81
:101DC00002D123A000F0C6FF04F47050B0F5505FBC
:101DD00007D126A000F0BEFF11A000F0BBFF01203C
:101DE000DBE729A000F0B6FF0020D6E7576F726B43
:101DF000696E6720506167652053697A653A000013
:101E00002025642042797465730D0A0042696E6171
:101E1000727920506167652053697A650D0A000068
:101E2000556E737570706F7274656420466C617363
:101E300068210D0A00000000322D4D6269742046B1
:101E40006C6173682044657465637465640D0A0091
:101E500031362D4D62697420466C6173682044658B
:101E60007465637465640D0A0000000033322D4D03
:101E700062697420466C617368204465746563749C
:101E800065640D0A00000000466C61736820496EAD
:101E9000697420446F6E65210000000010B50024B5
:101EA00010210E4800F0EBF8D720FFF739FEAA20EA
:101EB000FFF736FE04434FF6FF7000EA0424AA2021
:101EC000FFF72EFE04430120FFF7F6FA1021034826
:101ED00000F0D7F800F004F8204610BD00100240D2
:101EE00070B5002500241021114800F0C8F80EE05C
:101EF000D720FFF715FEAA20FFF712FE0546FF2D9B
:101F000004D005F08000802800D104E0641C6FF04C
:101F10007F408442ECD300BF6FF07F40844202D305
:101F200004A000F017FF1021014800F0AAF870BDCE
:101F300000100240466C617368206F7065726174B6
:101F4000696F6E2074696D6564206F75740D0A0089
:101F50002DE9F04105460C46164600271021114890
:101F600000F08DF80220FFF7DBFDC4F30740FFF718
:101F7000D7FDC4F30720FFF7D3FDE0B2FFF7D0FD94
:101F800005E039467A1C97B2685CFFF7C9FDB74295
:101F9000F7DB1021034800F074F8FFF7A1FF0120E0
:101FA000BDE8F08100100240F0B50A460021002390
:101FB000002400BF3DE0012505FA01F3156805EA9C
:101FC00003049C4234D105684F000326BE40B5434C
:101FD000056015794E00B5400668354305601579F2
:101FE000012D02D01579022D16D185684F000326E8
:101FF000BE40B543856055794E00B540866835438F
:102000008560456801268E40B543456045689679F0
:102010008E40B6B235434560C5684F000326BE40CA
:10202000B543C560D5794E00B540C6683543C56037
:10203000491C1029BFD3F0BDF0B5002300244D0783
:10204000ED0E02FA05F3CE1000F1200555F82650EA
:102050004E07F70E0F26BE40B543CF1000F1200605
:1020600046F82750CE1000F1200555F8265045EAD5
:102070000304CE1000F1200545F82640F0BD418351
:102080007047018370470AB1018300E041837047C4
:1020900000BFFEE721B1028842F48062028004E0C2
:1020A00002884FF6FF331A400280704770B502462F
:1020B0000024002500230020958A138B1B0445EA89
:1020C000030626F07F4404EA01068E4201D1012076
:1020D00000E0002070BD21B1028842F001020280C0
:1020E00004E002884FF6FE731A4002807047000039
:1020F00010B504461348844209D10121480500F077
:102100003DF900214FF4001000F038F918E00E48B6
:10211000844209D10121880500F030F900214FF4F3
:10212000800000F02BF90BE00848844208D101211F
:10213000C80500F023F900214FF4000000F01EF95B
:1021400010BD00000054004000580040005C0040FA
:1021500021B1028842F48072028004E002884FF6C6
:10216000FF631A400280704721B1028842F4007276
:10217000028004E002884FF6FF531A400280704745
:102180002DE9FF4704460D460026B1460427DFF837
:10219000CC80A6884FF6C0700640684600F014F95F
:1021A000DDF808802E48B8FBF0F01FFA80F946EA07
:1021B0000906A68020884FF6FE7108402080002680
:1021C0002849286888420CD828684000B8FBF0F0FD
:1021D00087B2042F00DA04273E4309F1010020846E
:1021E00027E0E888A0F53F41FF3906D1286800EBD9
:1021F0004000B8FBF0F087B209E0286800EBC001AE
:1022000001EB0010B8FBF0F087B247F480473805C7
:10221000000D01D147F0010747F4004006434FF499
:10222000967009FB00F04FF47A7190FBF1F0401CBE
:102230002084A683208840F00100208026884FF665
:10224000F5300640A8886989084306432680A88996
:10225000298908432081BDE8FF87000000127A0029
:1022600040420F00A08601000146088AC0B27047B4
:1022700012B141F0010101E001F0FE01018270475D
:102280000182704700BFFEE77047000070B5002173
:1022900000230F22C47824B3174C246804F4E064AC
:1022A000C4F5E064C4F30721C1F10404E3B20A41B8
:1022B00044789C40E1B28478144021430C07210EFD
:1022C0000E4C05786155047804F01F050124AC40DC
:1022D00005786D114FF0E02606EB8505C5F8004145
:1022E00009E0047804F01F040125A540044C067899
:1022F000761144F8265070BD0CED00E000E400E0DB
:1023000080E100E002490143024A11607047000089
:102310000000FA050CED00E07047000029B1064A04
:1023200012680243044B1A6004E0034A12688243B5
:10233000014B1A60704700003038024029B1064A4C
:1023400012680243044B1A6004E0034A1268824395
:10235000014B1A60704700003438024029B1064A28
:1023600012680243044B1A6004E0034A1268824375
:10237000014B1A60704700004038024029B1064AFC
:1023800012680243044B1A6004E0034A1268824355
:10239000014B1A60704700002038024029B1064AFC
:1023A00012680243044B1A6004E0034A1268824335
:1023B000014B1A6070470000443802400149C8646C
:1023C0007047000000004742F0B5002100220024C1
:1023D000022500260223324F3F6807F00C0121B18D
:1023E000042905D0082937D105E02E4F076036E0D3
:1023F0002D4F076033E02A4F3F1F3F68C7F38056D9
:10240000274F3F1F3F6807F03F036EB1264FB7FBD2
:10241000F3F7DFF88CC0ACF1040CDCF800C0CCF3AF
:10242000881C07FB0CF40CE01E4FB7FBF3F7DFF83A
:1024300070C0ACF1040CDCF800C0CCF3881C07FBC6
:102440000CF4174F3F1F3F68C7F301477F1C7D0007
:10245000B4FBF5F7076002E0124F076000BF00BF52
:102460000F4F3F6807F0F0010909104F7A5C0768C9
:10247000D74047600A4F3F6807F4E051890A0B4F85
:102480007A5C4768D7408760054F3F6807F4604132
:10249000490B064F7A5C4768D740C760F0BD000023
:1024A000083802400024F40000127A0014000020D2
:1024B00002460020044B186820F0EC6042EA010359
:1024C0001843014B186070470838024001490870F2
:1024D000704700003400002000B587B001210220C1
:1024E000FFF71CFF01218805FFF738FF04220B21AD
:1024F0001F48FFF7A1FD04220A211D48FFF79CFD9C
:102500004FF44060019002208DF8080001208DF802
:102510000A0002208DF8090001208DF80B0001A9A6
:102520001348FFF741FD1348FFF7E2FD0020ADF827
:1025300010004BF6FF70ADF81200FE20ADF814004D
:102540004FF48060ADF816000001ADF818000A489D
:10255000039003A90748FFF713FE01210548FFF781
:10256000BAFD01210348FFF795FD07B000BD00004B
:10257000000402400058004000350C002DE9F041F5
:1025800006460F465E4804685E48008840F4806056
:102590005C49088001215B481438FFF7D9FD584891
:1025A000046806E02000A4F1010402D1FF20BDE888
:1025B000F081554953481438FFF778FD0028F1D0D1
:1025C0005248007840F0010100224E481438FFF7CD
:1025D0004FFE4B48046805E02000A4F1010401D13E
:1025E000FF20E4E74A4947481438FFF75FFD002819
:1025F000F2D0314643481438FFF742FE002500E090
:102600006D1C4FF6FF708542FAD33D48046805E023
:102610002000A4F1010401D1FF20C8E73C49891C36
:1026200038481438FFF742FD0028F1D035480088BB
:1026300040F4806033490880012132481438FFF7A4
:1026400093FD01212F481438FFF782FD2C480468C0
:1026500005E02000A4F1010401D1FF20A7E72A49E9
:1026600028481438FFF722FD0028F2D027480078C8
:1026700040F00101012223481438FFF7F9FD00253D
:1026800000E06D1C4FF6FF708542FAD31C480468C9
:1026900005E02000A4F1010401D1FF2087E71A49D9
:1026A000491C18481438FFF701FD0028F1D000211B
:1026B00014481438FFF7EEFC1148046805E02000C8
:1026C000A4F1010401D1FF2071E70F493F310D480A
:1026D0001438FFF7EBFC0028F1D001210948143829
:1026E000FFF742FD07481438FFF7BEFD3870054874
:1026F000008840F4806003490880002057E700000C
:102700003000002014580040010003003400002075
:102710008200070070B505460E462C48046801216A
:102720002B48FFF715FD2948046805E02000A4F1B7
:10273000010401D1FF2070BD26492548FFF7B6FCF2
:102740000028F3D00022244801782148FFF790FDAB
:102750001E48046805E02000A4F1010401D1FF2017
:10276000E9E71E491A48FFF7A1FC0028F3D02946E3
:102770001748FFF785FD1548046805E02000A4F11F
:10278000010401D1FF20D6E71449891C1048FFF746
:102790008DFC0028F2D031460D48FFF771FD0B4843
:1027A000046805E02000A4F1010401D1FF20C2E784
:1027B0000A49891C0648FFF779FC0028F2D001215C
:1027C0000348FFF7D1FC0020B5E7000030000020EF
:1027D0000058004001000300340000208200070080
:1027E000704721B1028842F04002028004E0028872
:1027F0004FF6BF731A400280704710B5002202885E
:1028000002F441520B884C8823438C882343CC88A4
:1028100023430C8923434C8923438C892343CC894C
:1028200023431A430280838B4FF2FF742340838338
:102830000B8A038210BD70470D490978A9B90D496B
:1028400009880D4A1288914206DB0A4909880A4A1A
:102850001288891A88B209E007490988C1F1200164
:10286000044A1288114488B200E02020704700001A
:102870002C0000202A0000202800002000B587B08E
:1028800001214804FFF76AFD01210846FFF746FDD4
:102890000C20019002208DF8080000208DF80A001D
:1028A00002208DF8090001208DF80B0001A93E4897
:1028B000FFF77AFB072202213B48FFF7BDFB072207
:1028C00003213948FFF7B8FB4FF4E13003900020B3
:1028D000ADF81000ADF81200ADF81400ADF8180016
:1028E0000C20ADF8160003A9304800F099FB012236
:1028F00040F225512D4800F06EFB26208DF8000097
:1029000000208DF801008DF8020001208DF80300F1
:102910006846FFF7BBFC0121244800F019FB0120A9
:10292000FEF7CAFD01218807FFF718FD01211020DD
:10293000FFF7F4FC4FF4C070019002208DF80800FE
:1029400000208DF80A0002208DF8090001208DF882
:102950000B0001A91648FFF727FB0822114614486F
:10296000FFF76AFB082207211148FFF765FB4FF4C8
:10297000E13003900020ADF81000ADF81200ADF882
:102980001400ADF818000C20ADF8160003A9094892
:1029900000F046FB0121074800F0DAFA0120FEF7BB
:1029A0008BFD07B000BD0000000002400044004065
:1029B000001002400078004030B599B004460D4642
:1029C00000200290019020780D287CD2DFE800F0F2
:1029D000A307A39F4C999A9E627C7D5A5D00012DAE
:1029E00000DD9CE0BDF81A0002AA01A9FEF7DCFA9E
:1029F0008DF82400012209A9104600F0C1F94AA06F
:102A000000F0A8F90298820A4CA111A8FDF774FC05
:102A100011A800F09FF90198000E8DF82800019888
:102A2000000C8DF829000198000A8DF82A00019801
:102A3000C0B28DF82B000298000E8DF82400029889
:102A4000000C8DF825000298000A8DF826000298E7
:102A5000C0B28DF82700082209A9022000F090F9E1
:102A60000020FEF797FA57E0022D00D057E060787B
:102A7000042803DA6078FFF7E3F802E033A000F0FF
:102A800069F949E0FEF7B8FE46E0FEF76FFEFEF793
:102A9000B3FE41E033A000F05DF903A8FEF7B4F8FF
:102AA0003748039037A000F055F9182203A94FF4D6
:102AB0007F20FFF753F88DF82400012209A9082090
:102AC00000F05EF928E026E026E035A000F042F9AB
:102AD00000208DF82400012209A90A2000F050F9F5
:102AE00000BFBFF34F8F3148006800F4E060304909
:102AF0000843001D2D490860BFF34F8F00BF00BF82
:102B0000FEE70CE0012D00DD09E008E004E029A06B
:102B100000F020F903E002E000BF19B030BD29A0A9
:102B200000F018F900BFF8E7546F74616C20496D2C
:102B300061676527732053697A6520002564204BFF
:102B40006279746573200D0A0000000046696C65A7
:102B5000206E6F20646F65736E742045786973749E
:102B60000D0A00004C6F6164696E67204465666100
:102B7000756C742053657474696E67730D0A000078
:102B8000EFCDAB0153746F72696E67205365747437
:102B9000696E677320746F20466C6173680D0A005C
:102BA0005265626F6F74696E670D0A000CED00E08C
:102BB0000000FA054E6F7420537570706F72746563
:102BC000640D0A00496E76616C696420436F6D6D17
:102BD000616E64206F72204543484F2077617320F7
:102BE00073656E740D0A00002DE9F041FFF724FEB5
:102BF0000746042F67DD002463E03E480088204438
:102C000000F01F003C49085CFF2858D13948008873
:102C10002044401C00F01F00085CFE284FD1A01C7F
:102C200085B248E033480088284400F01F0032494C
:102C3000085CFF283DD12F4800882844401C00F044
:102C40001F00085CFA2834D1281B801E142824DABF
:102C500000260CE02748008820443044801C00F007
:102C60001F002549085C25498855701C86B2281B21
:102C7000801EB042EEDC1F480188A81C08441D4994
:102C800008800846008800F01F000880281B801E6E
:102C900081B21A48FFF790FE0AE016480188A81C86
:102CA0000844144908800846008800F01F00088086
:102CB00004E0681C85B2781EA842B3DC00BF601C2B
:102CC00084B2BC4299DB0E48007830B100200C4938
:102CD0000870084908800B490880064800881F28AA
:102CE00002DD002003490880002005490870BDE886
:102CF000F08100002800002048000020680000202B
:102D00002C0000202A00002070B505460C46002645
:102D100005E0A85D00F006F8641E701C86B2002C69
:102D2000F7D170BD10B5044600BF4021084800F03F
:102D30001BF90028F9D02146054800F0DBF900BF57
:102D40004021034800F010F90028F9D010BD000020
:102D50000044004010B504460BE000BF4021074886
:102D600000F002F90028F9D014F8011B034800F024
:102D7000C1F920780028F0D110BD00000078004093
:102D800070B586B005460E461446FF208DF8040047
:102D9000FE208DF805008DF80650224631460DF1D3
:102DA0000700FDF75BFBFF2101AAE01C1154FA218B
:102DB000201D1154611D01A8FFF7A6FF06B070BDCC
:102DC0002248006840F08050204908602048006890
:102DD00040F440401E4908601C48383800681B49D0
:102DE000383908600846006840F40040086008462A
:102DF000006840F4A05008601648091F0860081FCA
:102E0000006840F08070091F086000BF0F4840381C
:102E1000006810F0007FF9D040F205600E490860AC
:102E20000A483838006820F003000849383908603B
:102E30000846006840F00200086000BF03483838C8
:102E4000006800F00C000828F8D1704740380240B4
:102E500000700040105A0007003C0240064800681D
:102E600020B105480068401E034908600348006817
:102E7000401C024908607047240000203C000020EC
:102E800010B51548006840F47000134908601348F5
:102E9000006840F001001149086000200F49083126
:102EA00008600E4800680E4908400C4908600D484B
:102EB000091D0860081F006820F48020091F0860B1
:102EC000002006490C310860FFF77AFF4FF00060E0
:102ED00001498039086010BD88ED00E000380240EB
:102EE000FFFFF6FE1030002410B540F225511348C4
:102EF00000F047F800B31248007858B90F49091D8F
:102F00000988CAB20F490888411C0E4B19800E4926
:102F10000A5402E00948001D00880A48008800F0B1
:102F20001F00084908800846008808490988884227
:102F300002D101200249087010BD00000044004089
:102F40002C0000202A00002048000020280000203B
:102F500021B1828942F40052828104E082894DF6D7
:102F6000FF731A408281704702460020B1F5007F4E
:102F700000D100BF13880B4201D0012000E00020E7
:102F8000704770B502460024002300250020A1F5FB
:102F900010666A3E00D100BFC1F3421501F01F0365
:102FA000012606FA03F3012D02D19689334006E08B
:102FB000022D02D1168A334001E0968A33400C126A
:102FC000012606FA04F41688344013B10CB101202E
:102FD00000E0002070BDF0B5034600240026002567
:102FE0000020A1F510676A3F00D100BF1846C1F369
:102FF000421401F01F06012707FA06F5012C01D142
:103000000C3004E0022C01D1103000E014301AB171
:1030100007682F43076002E00768AF430760F0BD11
:103020002DE9FF4705460E460024A14600BFA046F5
:10303000B08900B100BF2C8A24F44054F0880443C6
:103040002C82AC8941F20C608443B08831890843FA
:10305000718908430443AC81AC8A24F44074B0897C
:103060000443AC826846FFF7AFF92048854202D09E
:103070001F48854202D1DDF80C9001E0DDF8089090
:10308000A88910F4004F08D009EBC90000EB091023
:1030900031684900B0FBF1F707E009EBC90000EB2C
:1030A000091031688900B0FBF1F76420B7FBF0F03C
:1030B00004012009642101FB1078A88910F4004F55
:1030C00008D0322000EBC800B0FBF1F000F00700A0
:1030D000044308E0322000EB08106421B0FBF1F05B
:1030E00000F00F0004432C81BDE8FF870010014071
:1030F00000140140C1F308028280704700BFFEE760
:103100001CB50120FFF75AF901210846FFF706F91F
:10311000002208210D48FEF78FFF4FF480700090C9
:1031200003208DF8050002208DF8040000208DF8A2
:10313000060001208DF8070069460448FEF734FFB9
:1031400000210846FFF7B4F91CBD00000000024052
:103150008EB000200D904A4800684FF47A72B0FBA0
:10316000F2F1B1F1807F00D31DE021F07F40401EDD
:103170004FF0E022506150170F22002807DA1307A2
:103180001D0E404B00F00F04241F1D5503E01307D4
:103190001C0E3D4B1C5400BF00204FF0E0229061FC
:1031A0000720106100BFFFF769FB38A0FFF7D2FDD1
:1031B0004FF448723CA16846FDF79EF86846FFF759
:1031C000C9FDFFF789F93DA0FFF7C4FDFDF734FD08
:1031D00043A0FFF7BFFDFEF7D9FB20B19DF83400F7
:1031E00040F002000D9044A0FFF7B4FD18224C49B6
:1031F0004FF47F20FEF73EFC494800684949884269
:1032000011D049A0FFF7A6FD4548FDF7FDFC454854
:10321000434908604BA0FFF79DFD182240494FF439
:103220007F20FEF79BFC3E48FDF73CFC18223C4902
:103230004B48FDF758F94BA0FFF78CFD5022514940
:103240005148FEF717FC4F4800683649884204D0C1
:103250004EA0FFF77FFDFEF789FAFEF7CDFA53A0E7
:10326000FFF778FDFDF758FE58A0FFF773FD012228
:103270000DA90020FFF784FD01E0FFF7B5FCFCE796
:103280000000002018ED00E000E400E0496E6974E1
:1032900069616C697A696E672043616D657261204E
:1032A0004932430D0A0000004932432053706565DE
:1032B000643A202564204B687A0D0A00496E6974CF
:1032C00069616C697A696E672043616D657261201E
:1032D0005065726970686572616C730D0A00000058
:1032E000496E697469616C697A696E6720466C61C0
:1032F00073680D0A000000000D0A52656164696E72
:10330000672043616D6572612053657474696E67EF
:10331000732066726F6D20466C6173680D0A000041
:1033200030C30220EFCDAB0144656661756C74203B
:1033300053657474696E6773206C6F616465640DA6
:103340000A00000053746F72696E672053657474CD
:10335000696E677320746F20466C6173680D0A0094
:1033600014C302200D0A52656164696E67204669C4
:103370006C65205461626C652053797374656D0DC2
:103380000A0000009802002000F20F0046696C65F8
:10339000205461626C652053797374656D20436FAE
:1033A0007272757074210D0A00000000496E697414
:1033B00069616C697A696E672043616D657261202D
:1033C0007265676973746572730D0A005265616492
:1033D0007920666F72206F7065726174696F6E0D0F
:1033E0000A0000004FF04070E1EE100A70477C7D4B
:1033F0007C7D7D00180540A6001805A0400018053A
:10340000404000180540C00018058080004005803D
:103410008000580580800000058080FF01110012A7
:103420000017111875323619011A97030F37404FDC
:10343000BB509C5A576D803D3439023588220A377B
:103440004034A006020DB70E01FF00E004C0C8C161
:1034500096863D50005190522C5300540055885789
:10346000005A405BF05C01D302E0000000FF011154
:1034700001120017111875323619011A97030F3708
:10348000404FBB509C5A576D803D343902358822DD
:103490000A374034A006020DB70E01FF00E004C059
:1034A000C8C196863D50005190522C53005400558F
:1034B0008857005A905B2C5C05D302E0000000FFA7
:1034C000000500DA10D703DF0033803C40E17700CD
:1034D000000000E014E177E51FD703DA10E000FFF9
:1034E0000104080000FF002CFF2EDFFF013C321119
:1034F000040902042813E214482C0C33783A333BB5
:10350000FB3E0043111610399235DA221A37C323D5
:103510000034C0361A068807C00D870E414C00489B
:10352000005B0042034A8121992440253826825CB1
:10353000006300617062807C05208028306C006D23
:10354000806E007002719473C112401711184319F4
:10355000001A4B320937C04F6050A86D003D384605
:103560003F4F600C3CFF00E57FF9C04124E014763A
:10357000FF33A0422043184C0087D5883FD703D99A
:1035800010D382C808C9807C007D007C037D487D03
:10359000487C087D207D107D0E9000910E911A913F
:1035A00031915A91699175917E9188918F919691FF
:1035B000A391AF91C491D791E89120920093069383
:1035C000E393059305930093049300930093009372
:1035D000009300930093009600970897199702971D
:1035E0000C9724973097289726970297989780975B
:1035F000009700C3EDA400A800C511C651BF80C745
:1036000010B666B8A5B764B97CB3AFB497B5FFB0D0
:10361000C5B194B20FC45CC064C14B8C00863D50F0
:103620000051C852965300540055005AC85B965C2E
:1036300000D300C3ED7F00DA00E51FE167E000DDA5
:103640007F05001240D304C016C1128C00863D5085
:1036500000512C52245300540055005A2C5B245C1A
:10366000000000FF012420251826600000FF01242F
:1036700034251C26700000FF01243E2538268100D9
:1036800000FF012448254026810000FF0124582521
:1036900050269200007C7D7C7D7D000409000000A6
:1036A000040910000004092000000409300000048F
:1036B0000940007C7D7C7D7D7D7D000407201834E1
:1036C00006000407201C2A0600040720202006000C
:1036D00004072024160600040720280C067C7D7CA5
:1036E0007D7D0002032828000203383800020348C9
:1036F0004800020358580002036868FF002CFF2EA0
:10370000DFFF013C3211800902280013E214482C2B
:103710000C33783A333BFB3E004311161039023527
:1037200088220A3740230034A00602068807C00D0D
:10373000B70E014C004A8121992440253826824841
:103740000049005C006300460047000C3A5D555E8E
:103750007D5F7D6055617062807C05208028306CC3
:10376000006D806E007002719473C13D345A574FE2
:10377000BB509CFF00E57FF9C04124E01476FF3385
:10378000A0422043184C0087D0883FD703D910D3DC
:1037900082C808C9807C007D007C037D487D487C10
:1037A000087D207D107D0E9000910E911A9131912F
:1037B0005A91699175917E9188918F919691A3917B
:1037C000AF91C491D791E891209200930693E3932F
:1037D0000393039300930293009300930093009349
:1037E00000930093009600970897199702970C97FB
:1037F0002497309728972697029798978097009755
:1038000000A400A800C511C651BF80C710B666B895
:10381000A5B764B97CB3AFB497B5FFB0C5B194B2E6
:103820000FC45CA600A720A7D8A71BA731A700A795
:1038300018A720A7D8A719A731A700A718A720A7BE
:10384000D8A719A731A700A7187F00E51FE177DDEA
:103850007FC20E0000FF011240030A32091711183F
:103860004319001A4B3D3835DA221A37C334C006E3
:10387000880D870E414203FF000501E004C064C1CA
:103880004B8C005300540051C85296550057008687
:103890003D5080D3800500E0000000FF00E004DA26
:1038A00018D703E177440CE0000000FF011101127A
:1038B0000017111875323619011A97030F37404F48
:1038C000BB509C5A576D803D3439023588220A37E7
:1038D0004034A006020DB70E01FF00E004C0C8C1CD
:1038E00096863D50005190522C53005400558857F5
:1038F000005A905B2C5C05D302E0000000FF011130
:103900008112002A002B00460047003D34000000D1
:10391000033193000830820017307F001830FC001C
:103920001038C2001536F0000030000001300000F1
:1039300002300000033000000430FF0030302B0064
:10394000113008001030100004366000223660008C
:103950002136090009370000004021001D402200E7
:10396000003654000536040006363F00013C800056
:103970000D3022002336220000504F00205004005A
:103980008151790082510000855122009751010038
:1039900000550A000455000005557F0080500800BE
:1039A0000E301800104600001D47050008470600AD
:1039B0000C37A00008380A00093820000A38070030
:1039C0000B3898000C380C000D3880000E380700BA
:1039D0000F38D000875694001F50000000504F0051
:1039E0000150CF0000433000004330000B4635004B
:1039F0001D47000002300C00023000001347030096
:103A00001C47500021470200024490000C4622004F
:103A10001538440003350700013573000235800076
:103A20000B3500001838C800013888002438110010
:103A3000003A78001A3A0400133A3000183A0000AD
:103A4000193A7C00083A1200093AC0000A3A0F00FD
:103A50000B3AA0000C3507000D35D0000D3A0800D8
:103A60000E3A060000350000013500000235000066
:103A70000A3500000B3500000335000030302B0004
:103A8000023A0000033A7D00043A0000143A0000B4
:103A9000153A7D00163A0000003A7800083A09000D
:103AA000093A60000A3A07000B3AD0000D3A1000BC
:103AB0000E3A0D0007440400935170009B5800001B
:103AC0009A58C0001E402000014042001C400600E1
:103AD0002538AC0027380C0002543F000354000086
:103AE000063400008051FF008151520082511100C4
:103AF000835114008451250085512400865106000D
:103B0000875108008851080089517C008A51600063
:103B10008B51B2008C51B2008D5144008E513D004A
:103B20008F515800905146009151F8009251040075
:103B3000935170009451F0009551F000965103009C
:103B40009751010098510400995112009A510400B4
:103B50009B5100009C5106009D5182009E51000027
:103B60002550800083554000845540008055020058
:103B70000050CF00103710003236510002371000CD
:103B80000337B200043718000B3740000D3703002D
:103B900031360100323652000636240020369600B7
:103BA00085570700133A30000036520004364800AB
:103BB00006361B000D370B000F37C0000937010018
:103BC0002338000007500000095000001150000089
:103BD000135000009E5100008650000087500000E6
:103BE00088500000895000002B300000033507008A
:103BF000113007000C3504000D35580001388A00DB
:103C000003380A000438070005388000063804002D
:103C10000738380008380700093880000A380400DF
:103C20000B3838000C3809000D38D6000E38040067
:103C30000F3858001C3811001D38BA001E38040017
:103C40001F3848002038040021381800083A1400B2
:103C5000093AE0000A3A11000B3A60000D3A0400FC
:103C60000E3A030082560700835660008656040011
:103C700087561C0001507F000335000010301000F3
:103C80000150FF00835550008455500080550200BC
:103C9000013C8000003C04000058480001583100FD
:103CA0000258210003581B0004581A0005581E0032
:103CB00006582900075838000858260009581700E8
:103CC0000A5811000B580E000C580D000D580E002C
:103CD0000E5813000F581A001058150011580D00F7
:103CE0001258080013580500145804001558050010
:103CF0001658090017580D001858110019580A00D5
:103D00001A5804001B5800001C5800001D580100E0
:103D10001E5806001F5809002058120021580B0099
:103D200022580400235800002458000025580100A0
:103D30002658060027580A002858170029580F004F
:103D40002A5809002B5806002C5805002D5806004B
:103D50002E580A002F580E003058280031581A00EB
:103D60003258110033580E0034580E0035580F00E9
:103D70003658150037581D0038586E00395839002C
:103D80003A5827003B581F003C581E003D5823005E
:103D90003E582F003F58410040580E0041580C003B
:103DA00042580D0043580C0044580C0045580C0074
:103DB00046580C0047580C0048580D0049580E0052
:103DC0004A580E004B580A004C580E004D580E0031
:103DD0004E5810004F5810005058110051580A000A
:103DE00052580F0053580E005458100055581000E8
:103DF0005658100057580A0058580E0059580E00CF
:103E00005A580F005B580F005C580F005D580A00AD
:103E10005E5809005F580D0060580C0061580B0097
:103E200062580D0063580700645817006558140065
:103E3000665818006758180068581600695812002C
:103E40006A581B006B581A006C5816006D58160003
:103E50006E5818006F581F0070581C0071581600DB
:103E60007258100073580F007458130075581C00D6
:103E700076581E00775817007858110079581100AD
:103E80007A5814007B581E007C581C007D581C007A
:103E90007E581A007F581A0080581B0081581F0056
:103EA0008258140083581A0084581D0085581E003B
:103EB00086581A0087581A008051FF00815152001D
:103EC0008251110083511400845125008551240032
:103ED00086511400875114008851140089516900DB
:103EE0008A5160008B51A2008C519C008D5136008C
:103EF0008E5134008F51540090514C009151F80074
:103F000092510400935170009451F0009551F000CB
:103F100096510300975101009851050099512F00C7
:103F20009A5104009B5100009C5106009D51A00035
:103F30009E51A0008A5200008B5201008C52040056
:103F40008D5208008E5210008F5220009052300087
:103F500092520000935200009452000095520100CA
:103F6000965200009752040098520000995208009F
:103F70009A5200009B5210009C5200009D5220005B
:103F80009E5200009F5230008252000000530000F9
:103F9000015320000253000003537C000C53000027
:103FA0000D5310000E5320000F53800010532000BB
:103FB00011538000085320000953400004530000AF
:103FC00005533000065300000753800014530800C7
:103FD00015532000195330001653100017530000DA
:103FE00018530200805301008153000082530000E7
:103FF00083531F008453000085530600865300003E
:1040000087530000885300008953E1008A53000061
:104010008B532B008C5300008D5300008E530000F7
:104020008F531000905300009153B300925300003F
:104030009353A6009453080080540C008154180038
:1040400082542F00835455008454640085547100B9
:1040500086547D00875487008854910089549A00C3
:104060008A54AA008B54B8008C54CD008D54DD00C6
:104070008E54EA008F541D009054050091540000A6
:10408000925404009354200094540300955460000B
:10409000965402009754B800985402009954860030
:1040A0009A5402009B545B009C5402009D543B00B8
:1040B0009E5402009F541C00A0540200A15404000E
:1040C000A2540100A354ED00A4540100A554C5005E
:1040D000A6540100A754A500A8540100A9546C00DF
:1040E000AA540100AB544100AC540100AD5420006F
:1040F000AE540000AF541600B0540100B15420007B
:10410000B2540000B3541000B4540000B554F00091
:10411000B6540000B754DF0002543F0003540000BF
:10412000005510000255000003550600045500001C
:1041300005557F00255080000F3A3000103A2800C6
:104140001B3A30001E3A2800113A61001F3A100055
:104150008856FD008956DF008A56FE008B56EF0018
:104160008C56FE008D56EF008E56AA008F56AA0080
:10417000FFFFFF0000001000000014000000180006
:1041800000001C0030313233343536373839414283
:1041900043444546403058003031323334353637A9
:1041A000383961626364656640307800DC4100083C
:1041B00000000020480000004402000824420008DB
:1041C0000000001000000100E8010008244200087F
:1041D0004800002060D30200600200080095BA0A7F
:1041E00000000000000000000102030406070809A7
:1041F000000000000102030401020304060708098D
:10420000000000000000000000000000A086010087
:10421000000000000000000000000000000000009E
:104220000000000001FF01FF01FF01FF01FF01FF8E
:1042300001FF01FF01FF01FF01FF01FF01FF01FF7E
:1042400001FF01FF01FF01FF01FF01FF01FF01FF6E
:1042500001FF01FF01FF01FF01FF01FF01FF01FF5E
:1042600001FF01FF01FF01FF01FF01FF01FF01FF4E
:1042700001FF01FF01FF01FF01FF01FF01FF01FF3E
:1042800001FF01FF01FF01FF01FF01FF01FF01FF2E
:1042900001FF01FF01FF01FF01FF01FF01FF01FF1E
:1042A00001FF01FF01FF01FF01FF01FF01FF01FF0E
:1042B00001FF01FF01FF01FF01FF01FF01FF01FFFE
:1042C00001FF01FF01FF01FF01FF01FF01FF01FFEE
:1042D00001FF01FF01FF01FF01FF01FF01FF01FFDE
:1042E00001FF01FF01FF01FF01FF01FF01FF01FFCE
:1042F00001FF01FF01FF01FF01FF01FF01FF01FFBE
:1043000001FF01FF01FF01FF01FF01FF01FF01FFAD
:1043100001FF01FF01FF01FF01FF01FF01FF01FF9D
:1043200001FF01FF01FF01FF01FF01FF01FF01FF8D
:1043300001FF01FF01FF01FF01FF01FF01FF01FF7D
:1043400001FF01FF01FF01FF01FF01FF01FF01FF6D
:1043500001FF01FF01FF01FF01FF01FF01FF01FF5D
:1043600001FF01FF01FF01FF01FF01FF01FF01FF4D
:1043700001FF01FF01FF01FF01FF01FF01FF01FF3D
:1043800001FF01FF01FF01FF01FF01FF01FF01FF2D
:1043900001FF01FF01FF01FF01FF01FF01FF01FF1D
:1043A00001FF01FF01FF01FF01FF01FF01FF01FF0D
:1043B00001FF01FF01FF01FF01FF01FF01FF01FFFD
:1043C00001FF01FF01FF01FF01FF01FF01FF01FFED
:1043D00001FF01FF01FF01FF01FF01FF01FF01FFDD
:1043E00001FF01FF01FF01FF01FF01FF01FF01FFCD
:1043F00001FF01FF01FF01FF01FF01FF01FF01FFBD
:1044000001FF01FF01FF01FF01FF01FF01FF01FFAC
:1044100001FF01FF01FF01FF01FF01FF01FF01FF9C
:0844200001FF01FF01FF110083
:04000005080001AD41
:00000001FF
